:1000000000000220618B0200898B02008B8B0200B2
:100010008D8B02008F8B0200918B0200000000008C
:10002000000000000000000000000000F944020091
:10003000958B02000000000019450200998B020018
:1000400045B602009B8B020031600200C1530300E1
:100050009B8B02009B8B02008D4E02009B8B02004B
:100060009B8B02009B8B02009B8B020011520200B3
:100070009B8B020049B802009B8B02009B8B020005
:10008000B95D0200514102009B8B02009B8B020074
:100090009B8B02009B8B02009B8B02009B8B0200C0
:1000A0009B8B02009B8B02009B8B02009B8B0200B0
:1000B0009B8B02009B8B02000000000000000000F0
:1000C0009B8B02009B8B02009B8B0200D153030091
:1000D000215202009B8B0200DD2A0000B96E020053
:1000E0009B8B0200000000000000000000000000E8
:1000F000000000009B8B020000000000E1530300A1
:1001000000000000000000000000000000000000EF
:1001100000000000000000000000000000000000DF
:1001200000000000000000000000000000000000CF
:1001300000000000000000000000000000000000BF
:1001400000000000000000000000000000000000AF
:10015000000000000000000000000000000000009F
:10016000000000000000000000000000000000008F
:10017000000000000000000000000000000000007F
:10018000000000000000000000000000000000006F
:10019000000000000000000000000000000000005F
:1001A000000000000000000000000000000000004F
:1001B000000000000000000000000000000000003F
:1001C000000000000000000000000000000000002F
:1001D000000000000000000000000000000000001F
:1001E000000000000000000000000000000000000F
:1001F00000000000000000000000000000000000FF
:10020000FD6F030000000000AD45000037930300C0
:100210000270030000000000AD45000037930300AA
:100220000470030000000000E16F0000C2940300AE
:100230000D7003000000000059640000709403007A
:100240001370030000000000AD6700003D94030040
:100250001A70030000000000B13900002795030068
:100260001F70030000000000E539000051920300F8
:1002700030740300000000004D3A00001D9403009C
:100280000D6C03000100000021590000189B0300C1
:10029000076C030001000000D570000084A2030079
:1002A000016C030001000000A570000045A50300DB
:1002B0002F7403000200000045590000219C030038
:1002C0000470030002000000E16F000017A20300A9
:1002D0000D7003000200000059640000B0A103008B
:1002E0001370030002000000AD67000050A103007E
:1002F000C870030001000000A546000087990300B4
:10030000C271030001000000C9470000089A030001
:10031000C971030001000000F1490000E2990300E7
:10032000D86F0300010000007D3E0000FE92030034
:10033000E06F030001000000E93900008E92030025
:10034000E56F030001000000D9420000A8950300FA
:10035000EA6F030001000000993D000033920300A2
:10036000F16F0300010000003D3D0000AC9303006D
:10037000F66F0300010000006D3C0000C791030010
:10038000CD700300010000001D470000B899030074
:100390000D6C03000200000019560000E15500003A
:1003A00049360000293800000C9B0300016C030053
:1003B000020000007D640000E5690000493600008D
:1003C0002938000044A10300076C0300020000006C
:1003D000D9640000E56900004936000029380000B2
:1003E00044A10300C53200007D370000000000007A
:1003F00000000000000000000000000000000000FD
:1004000000000000000000000000000000000000EC
:1004100000000000000000000000000000000000DC
:1004200000000000000000000000000000000000CC
:1020000010B5054C237833B9044B13B10448AFF332
:1020100000800123237010BDE008002000000000B4
:102020001CD0030008B5034B1BB103490348AFF3B1
:10203000008008BD00000000E40800201CD0030060
:10204000A3F5803A704700BF154B002B08BF114B1A
:102050009D46FFF7F5FF00218B460F461148124AB7
:10206000121A1AF0CFFD0C4B002B00D098470B4BE7
:10207000002B00D098470020002104000D000B48E1
:1020800018F088F81BF014F82000290000F010F870
:1020900018F08EF8000008000000000000000000AA
:1020A00000000220E0080020FCA6012001D1010070
:1020B00008B500F097F901F081FB29F0D5FC00F09C
:1020C0009BF902F0CFFA01F0CBF901F05DF901F0D4
:1020D000F3F8FEE7704738B58AB204460D4601466C
:1020E000002000F0DDF82A0C21460120BDE8384030
:1020F00000F0D6B8F7B50126324601A91F208DF8A9
:10210000026000F05DFD0446002840F08380019DE0
:10211000B5F5003F4FEA15477FD20146324600F041
:1021200089F832463146304600F084F8B74269D12A
:10213000C5F30725B54265D1394B019301990520B7
:10214000FFF7C9FF012201A91C2000F039FD044658
:1021500000285FD101990920FFF7BDFF012201A9E5
:10216000112000F02DFD0446002853D1019A0521CD
:1021700000F0C2F8044600284CD1012201A9132026
:1021800000F01EFD0446002844D1019A092100F008
:10219000B3F8044600283DD1012201A91E2000F019
:1021A0000FFD0446002835D1019B03F07F038DF815
:1021B00001302BB101221B480DEB02010EF032FD64
:1021C000012201A9182000F0FBFC044610BB019B72
:1021D0008BB11B0C01220DF1030113488DF8033064
:1021E0000EF020FD019B11488DF8033001220DF106
:1021F00003010EF017FD01220DF102010C480EF053
:1022000011FD07E0012201A91A2000F0D9FC0446C3
:10221000002893D0204603B0F0BD6FF00B04F9E71F
:10222000EE3FEE3FE8660300F2660300046703003A
:1022300016670300F0B58BB005AC8DF80620164A82
:102240008DF80710034602F1100726461068516802
:10225000254603C50832BA422C46F7D10F4C1278F6
:10226000616820682A7002AA03C2218911802BB1FB
:102270003033DBB28DF817308DF80B300DF10701DC
:10228000012230460EF0CEFC01220DF1060102A81B
:102290000EF0C8FC0BB0F0BD3067030041670300CF
:1022A000F0B589B0134B019203AA05460C4603F121
:1022B000100C174618685968164603C6083363455C
:1022C0003246F7D119889B783180B370019BA3F512
:1022D0007A5330353034B3F57A7F8DF80F508DF85E
:1022E000134005D804220DEB020138460EF09AFC8B
:1022F00009B0F0BD4B670300F0B5244B8DB003ACC3
:1023000005468C4603F1200E274618685968264674
:1023100003C6083373453446F7D119889B78B370E8
:10232000A2F10133B3F1FD3F318029D8D3B2C2F31A
:102330000721994226D1C2F307438B4222D1B3EB46
:10234000126F4FEA12611DD10CF1300330350DF1DF
:10235000070260468DF80F508DF8133008F08CFBA3
:10236000044650B99DF807304FF00132534302A99B
:102370000422384602930EF055FC20460DB0F0BD05
:102380000024FAE76FF00A04F7E700BF5E67030076
:102390004FF0A04307B50C22C3F83C270F4B40F287
:1023A0000112C3F8402522F0AFFA28B1852803D0E6
:1023B0000121084600F034FA23F0A6FD4FF08042D8
:1023C000D2F81834DB03FBD5054B1B6801934EF69E
:1023D000602003B05DF804EB184700BF00E0014047
:1023E000288E030008B500F039FB032022F0F9F82D
:1023F000BDE80840FFF7CCBF08B5074B07481B688E
:10240000984700F077FF10B1044800F079F9BDE873
:102410000840002000F07CBBAC8E0300D1330000EC
:1024200048F21953984222DC48F20253984205DCE4
:10243000002814BF6FF0040000207047A0F505408D
:102440000338162810D8DFE800F025220F0F0F0FF1
:102450000F0F0F0F0F0F0F28282828280C0F2828E0
:102460000C006FF0100070476FF00400704748F2E6
:102470005053984211D0A0F50540D4BF4138603880
:10248000032834BF6FF00A006FF0040070476FF04C
:10249000050070476FF0110070476FF00A00704739
:1024A00008B5064B1A783AB901221A7026F00AFDCF
:1024B000BDE80840FFF7B4BF002008BD300A002087
:1024C00008B5054B187828B126F018FDBDE808407E
:1024D000FFF7A6BF08BD00BF300A002007B50421E2
:1024E0000DEB010026F07CFE019803B05DF804FBC3
:1024F00010B588B007ACCDE903340023CDE9011253
:1025000007920093054903460222054826F092FCF3
:1025100008B0BDE81040FFF783BF00BFA4C80300A8
:10252000FC08002010B588B007ACCDE903340023C7
:10253000CDE901120792009305490346022205489E
:1025400026F078FC08B0BDE81040FFF769BF00BF77
:1025500080C80300FC08002010B5044626F00EFDDC
:102560002046BDE8104000F06BBD000070B5054688
:102570004C200E4600F026FD044650B10649324676
:1025800026F0E4FC18B1BDE87040FFF749BF2C60AD
:1025900070BD6FF01000FBE7ECC8030030B589B0E8
:1025A000CDE900239DF840500C9C06950F9DCDE988
:1025B00004450D9D0A46CDE902450D23012126F073
:1025C000F3FC09B0BDE83040FFF72ABF30B587B053
:1025D0000D9D0A9C04950C9DCDE902450B9DCDE90E
:1025E0000045FFF7DBFF07B030BD30B589B0CDE95E
:1025F00000239DF840500C9C06950F9DCDE90445A5
:102600000D9D0A46CDE902450D23002126F0CCFCA4
:1026100009B0BDE83040FFF703BF30B587B00D9D6E
:102620000A9C04950C9DCDE902450B9DCDE9004522
:10263000FFF7DBFF07B030BD70B505464FF4A4705F
:102640000C46164600F0BEFC78B1214600F59A73A0
:1026500004F1100251F8044B43F8044B9142F9D1B4
:1026600080F844612860002070BD6FF01000FBE727
:1026700000F0E6BC30B589B007ADCDE90335CDE952
:10268000011200230093079200F59A7390F84421F9
:10269000034926F0CFFBFFF7C3FE09B030BD00BFF2
:1026A000C8C80300024A136801331360704700BFB3
:1026B000340A0020014B187823F0EEBB380A0020C2
:1026C0001FB50C4A044607CA01AB83E807000A4954
:1026D0000294184623F086FB08B122F0CFF8074891
:1026E00023F0BAFB08B122F0C9F823F0A7FB04B02D
:1026F00010BD00BF308E0300A5260000380A002060
:1027000070B5154D06460FCD8AB004AC0FC495E8E0
:10271000030084E803002EB9104B114A11485121DF
:1027200017F012FD104B11491E60114801234FF4A0
:10273000007202F03FFE0F4B0F4A00934FF40073FC
:10274000CDE9022301930D4A0623694604A821F02E
:10275000DBFF0AB070BD00BF4C8E03008167030031
:102760003C8E03008A6703003C0E0020400E0020D0
:1027700040100020390C0020390A0020ED2700000D
:1027800008B522F019F8BDE8084022F063B870B52A
:1027900006460D460024A54201DC002070BD305DD8
:1027A00022F030F808B90134F5E71B20F6E7000005
:1027B00007B50DF1070022F00FF818B9084B1A7889
:1027C0001AB1187003B05DF804FB9DF807100548B6
:1027D00002F04CFE044B03481B689847F2E700BF29
:1027E000390E0020401000203C0E002003785A1EB5
:1027F000012A03D83721002000F012B80BB9FFF7E7
:10280000D7BF704738B5054D044645F001054FF474
:102810007A40A847013CFAD138BD00BF708E030052
:102820002DE9F843124B0C461970F8B1DFF84490CB
:102830004FF0A0472546002DFCD0032699F8000054
:102840004FF0100823F028FB6420C7F80C85FFF731
:10285000D9FFC7F808856420FFF7D4FF013EEDD10A
:102860004FF47A70FFF7CEFF013DE4E7BDE8F8834F
:1028700050100020380A0020024B187880F0010028
:10288000704700BFF01400207047000070B5044688
:10289000032938D8DFE801F00234142C204D2046FB
:1028A00026F01BF981B21F4802F0C6FD40211D48E9
:1028B00002F09EFD014638BB1B4B1C4A68210EE00E
:1028C0001B4B002201201A7021F054FE40211548B4
:1028D00002F08EFD014628B9134B144A53211548C6
:1028E00017F032FCBDE870400D48402226F0FAB8DF
:1028F0000F4B0022BDE8704001201A7021F04EBE3F
:102900000B4B00221A7070BD4022284626F0EAF8D0
:102910000028C4D0084B03481B68BDE87040184726
:10292000C48E030058140020FF670300928E03003A
:10293000F0140020086803005410002008B5064B6E
:102940000A46012119700146044826F0A5F8B0FA9C
:1029500080F0400908BD00BFF0140020C48E0300C1
:1029600008B528B9134B144A1448C62117F0ECFBDC
:10297000134B144918604FF480621348402302F04F
:1029800019FD25F033FB114B114800221A7024F079
:102990001BFD08B121F072FF0E4824F0B5FD08B10F
:1029A00021F06CFF24F07CFD18B1BDE8084021F057
:1029B00065BF08BD81670300848E030008680300BB
:1029C000541000205810002058140020F01400204B
:1029D000788E0300C48E0300023808B50D283CD859
:1029E000DFE800F0070C3B3B3B3B17272E3B3B3B14
:1029F0001132BDE80840002021F0D0BDBDE80840FC
:102A0000002021F0B7BD24F063FDBDE8084021F0AF
:102A1000D9BD23F091FF00BB21F0FEFF28B121F0CA
:102A2000E7FF21F0F9FF0028FBD1BDE8084024F0C2
:102A30004DBD24F05FFDBDE80840002021F0AEBF91
:102A4000BDE8084024F046BD25F0CAFA052804D1A7
:102A5000BDE80840032002F0B7BD08BD4FF0805329
:102A6000D3E94C320D2B30D1012A8CBF5A21FF21E2
:102A70004FF01023D3F80832DBB28B4227D0144A30
:102A80000123C2F80435D2F80034002BFBD04FF0FC
:102A90001020D0F8083223F0FF030B43C0F80832AF
:102AA0000023C2F804350A4AD2F80034002BFBD0C8
:102AB000BFF34F8F0749084BCA6802F4E062134323
:102AC000CB60BFF34F8F00BFFDE7FF21D0E770471A
:102AD00000E0014000ED00E00400FA05044B9A6BB1
:102AE000F1EE103A136C23F09F031364704700BF9C
:102AF00000EF00E0054AD2E900316FF07F401B187B
:102B000041F10001C2E90031704700BFF814002014
:102B100008B5084A0849094822F0CAFA40B90748E6
:102B200022F004FBBDE808400448012122F062BB0A
:102B300008BD00BF912C0000E88E030008000020B3
:102B4000094B1B68D3F80405084BD3E90023801810
:102B5000074A43F10003A0FB020102FB0311C00B73
:102B600040EA4140C90B704708000020F8140020DB
:102B700040420F0038B50F4B1A680C46D2F80415C6
:102B8000D2F804359942FBD00B490C4DD1E9002114
:102B90009B1841F10001A3FB053205FB0122DB0B71
:102BA00043EA4243D20BC0E9003231F011FE20600B
:102BB00038BD00BF08000020F814002040420F007C
:102BC0002DE9F8430646894617460AB37F2822D8DE
:102BD0001318802B1FD800F015FB804600F0BEF8BC
:102BE000054648B100F096F8044628B1404600F08A
:102BF0000EFB2046BDE8F8833A464946B0B231F0B4
:102C0000C9FF1DB100F072F80446EFE72C46EDE76E
:102C10006FF00A04EDE76FF00804EAE710B5074922
:102C20000023142202FB03F40C5D844204D0013320
:102C3000042BF7D1184610BDD8B2FCE700150020D0
:102C400010B5094B00211A465C78844201D11C7CE6
:102C500034B90131042903F11403F5D1002010BD6A
:102C6000142303FB0120FAE700150020074A002384
:102C70001046117C31B10133042B02F11402F8D15A
:102C800000207047142202FB03007047001500204B
:102C9000052870B5054603D1BDE87040FFF72ABF8F
:102CA000FFF7BCFF03281CD80E4C142303FB004481
:102CB000D4E901309847637C6BB10B480368D3F8C3
:102CC0000425E3681A4429460123BDE8704022F038
:102CD0007F4222F051BA29460348BDE8704022F0F5
:102CE00031BA70BD001500201000002038B5084D25
:102CF00000F088FA2B78044623B9022031F0CCFD8D
:102D000001232B70204600F082FA002038BD00BF5E
:102D10001800002038B50F4D00F074FA2B780446E7
:102D20009BB14FF4A0610C4800F042F84FF4C8701A
:102D300000F0B2FA4FF41061074800F039F84FF490
:102D4000FA7000F0A9FA00232B70204600F05FFA19
:102D5000002038BD1800002028000020014B187802
:102D6000704700BF1800002070B5084C06460025CB
:102D70002368B34203D163680BB1A0689847043558
:102D8000182D04F11004F3D170BD00BF50150020C0
:102D90001F2886BF00F01F00044B4FF0A04300F532
:102DA000E07053F8200000F001007047000300506D
:102DB000D0E9003203F01F0370B543EA421369B94A
:102DC0001F2B86BF03F01F031A4A4FF0A04203F5E2
:102DD000E073022142F82310002070BD480754BF61
:102DE000C1F3C004032411F4006514BF03260026B8
:102DF000C1F300221F2B88BF03F01F0302EB420226
:102E000042EA84028CBF0B484FF0A04003F5E07407
:102E100042EA062240F824201DB101229A40C0F85F
:102E200008254A0542BF012202FA03F3C0F80C3517
:102E3000D2E700BF00030050D0E9003203F01F03C7
:102E400043EA421389B11F2B8ABF094A4FF0A042BF
:102E500003F01F03D2F8102522FA03F313F0010345
:102E600018BF01230B70002070476FF00A007047F5
:102E70000003005037B5D0E9004304F01F040D46AD
:102E800044EA431421F0CCFE78B115F4805313D1F9
:102E90002F4A52F823108C4216D12046FFF778FFB4
:102EA000012818D16FF00A0013E021F07FFE0028FE
:102EB000EBD06FF005000CE0204621F087FF2046A4
:102EC00021F0A6FF002004E00433182BE1D16FF0BD
:102ED000180003B030BD15F4F83FE3D005F4C0335B
:102EE000B3F5803F2FD0B3F5C03F07D0B3F5004F07
:102EF000D8D1184BB3F803205B7902E0154B1A8840
:102F00009B78ADF804208DF80630019BADF80030B9
:102F10002A074FEA13438DF8023044BF01238DF88E
:102F200001306B0748BF03230B4A48BF8DF80130BF
:102F30006946204621F07EFE0028C8D101212046A6
:102F400021F0FCFEBEE7034BDA881B7AD9E700BF0D
:102F500050150020EE8E0300692D000070B5D0E9F9
:102F6000004304F01F0444EA43142046FFF710FF17
:102F7000012822D0124D0020060105EB0013AE59A6
:102F8000B44208D001300628F6D10D480023067B54
:102F900046B905EB03139A600122C3E900411A7395
:102FA000002009E00133062B00F11000EFD120468C
:102FB00021F00CFF6FF0180070BD6FF00A00FBE706
:102FC0005015002010B5044608B9002010BD083087
:102FD00000F01FF90028F8D000230370044A054BC5
:102FE0004480436013681B1B13600830EEE700BF8A
:102FF00058000020ADDEADDE414338B50C4602D1AD
:103000000023184638BD01F1080000F002F905461A
:103010000028F5D000F1080322460021184619F0D7
:10302000F1FD00222A700449044A6C806A600A6833
:10303000121B03460A60E4E758000020ADDEADDE57
:1030400010B5D0B108281CD010F8083D0E4A4168D0
:10305000914205D00D4B0E4A34210E4817F074F8FA
:10306000022B03D90C4B0A4A3521F6E70B49448859
:1030700051F82320224441F82320BDE8104000F0FD
:10308000CAB80020F9E700BFADDEADDE7C68030002
:103090001C8F03009368030014690300580000208C
:1030A00070B50C4658B130F8066C10F8085CA0F109
:1030B0000803A21B3CB9FFF7C3FF002070BD034605
:1030C00006460546F5E7022D05D9154B154A492157
:1030D000154817F039F83BB158681449884203D0B5
:1030E000134B104A4A21F3E7002A04DB114951F837
:1030F00025108A42E1D804F10801184600F08DF845
:103100000028DAD0094B0B4A44800570436052F81E
:103110002530361B334442F825300830CEE700BF57
:1031200014690300138F030093680300ADDEADDE66
:10313000306903005800002070B50C46054608B9F8
:10314000002070BD022905D90D4B0E4A0E486021A2
:1031500016F0FAFF0D4E56F821308342F0D30830B6
:1031600000F057F80028EBD0094B4580047043600D
:1031700056F824305B1B46F824300830E1E700BFE6
:103180004F690300058F0300936803005800002077
:10319000ADDEADDE4143F8B515460C4602D1002345
:1031A0001846F8BD022A05D9114B124A1248772158
:1031B00016F0CAFF114F57F822308B42EFD301F1BE
:1031C000080000F026F806460028E8D000F10803C1
:1031D00022461846002119F015FD094A7480357001
:1031E000726057F82520121B47F825200346D7E7C1
:1031F0004F690300F78E0300936803005800002016
:10320000ADDEADDE08B520F08FFF002008BD20F058
:1032100095BF21F075B821F0EFB870B50D460446A2
:1032200028B9B9B1BDE87040084621F069B899B134
:10323000084621F065F8064658B154F8042C083ABF
:10324000AA4228BF2A4621461AF0AAF9204621F0B0
:10325000D3F83446204670BD0C46FBE708B520F095
:10326000D1F9044B002158434FF47A73B0FBF3F0CB
:1032700008BD00BF40420F0038B5064D2B7804460C
:103280001BB923F081FF01232B702046BDE8384095
:1032900023F098BFB015002038B5064D2B780446B2
:1032A0001BB923F071FF01232B702046BDE8384085
:1032B00023F07CBFB015002008B520F061F9002094
:1032C00008BD000008B5034903484FF41C721AF00A
:1032D00067F908BD288F0300680600200048704782
:1032E00068060020004870476806002000487047C4
:1032F000A0060020014B93F8680270476806002082
:10330000014B83F8680270476806002073B5184DBA
:103310002B6863B91748052208211FF0E0F82860E0
:1033200028B9154B154A1648472116F00DFF154EC2
:1033300028684FF0FF3269461FF03EF90028F7D1A8
:10334000009B022B08D0042BF2D14FF4FA70FFF748
:1033500093FF00F0B9FDEBE7019800F003FA044693
:1033600000F014FA3146436920469847E0E700BF71
:10337000EC170020C4170020666903009891030031
:1033800075690300B115002013B54FF40060FFF715
:1033900019FE0C4C4FF400620321A0600346CDE9F6
:1033A00000210948094A00211FF038FA206030B98D
:1033B0003821012002B0BDE81040FFF731BA02B059
:1033C00010BD00BFB41700200D3300007D83030043
:1033D000074B1B6807B53BB10223CDE90030054B15
:1033E000694618681FF0BEF803B05DF804FB00BF23
:1033F000B4170020EC17002007B500230193064BFB
:10340000064C5D68A847052201A920681FF0EBF96A
:1034100000F0BAF8F6E700BF288E0300F01700208E
:10342000074B1B6810B54BB1FFF7ECFE044600F0EC
:1034300059F82046BDE81040FFF7E9BE10BD00BFB7
:10344000F4170020044B1B6823B1044B00211868BB
:103450001FF0C0B9704700BFF4170020F01700201C
:1034600007B54FF40070FFF7ADFD4FF40072022175
:10347000CDE900210346114A114800211FF0CEF981
:10348000104B186018B938210120FFF7C9F91FF057
:1034900082F90D4B186018B938210120FFF7C0F9E7
:1034A00000F014F830B10921012003B05DF804EBFD
:1034B000FFF7B6B903B05DF804FB00BFFC69030079
:1034C000F9330000F4170020F017002008B51FF0B2
:1034D0009BF8034B1860B0FA80F0400908BD00BFAC
:1034E000F817002038B5094D4FF0FF3128681FF05C
:1034F000A8F8044638B9064B9880588028681FF011
:10350000C4F8204638BD0120FCE700BFF8170020B2
:10351000FC170020F8B5164E04460D46306840F6FC
:1035200021311FF08EF808BB12494B888A885F1C36
:10353000D21BC2F30E02954215DB0921FFF770F989
:1035400009240BE0CA1810F8014B94710133C3F33E
:103550000E032A1A002AF5DC4B80002430681FF085
:1035600094F82046F8BD20462544F2E70124F8E708
:10357000F8170020FC17002010B5FFF7CBFF04461A
:10358000FFF760FF204610BD2DE9F0412A4E4FF0B5
:10359000FF3130681FF055F800284AD1274DAF8819
:1035A0006C88E41BC4F30E0434B9002430681FF0A7
:1035B0006CF82046BDE8F08102F00CF8032824D016
:1035C000402C1F49A0463B4628BF4FF04008002230
:1035D000E8180132807901F8010B01339045C3F3FB
:1035E0000E03F5DCAB80FFF785FEA8B1402C214629
:1035F000134828BF4021FFF7CAF80028D5D01B2167
:103600000020FFF70DF91B24D0E70E4B5B699847AC
:103610000028D5D10124C9E70A4B09489B684146D7
:1036200098470028C1D10B21FFF7FAF80B24AF808F
:10363000BCE70124BDE700BFF8170020FC170020FD
:1036400002980020AC8E03002DE9F3470746FFF7F0
:10365000D9FD3F4CDFF8FC80DFF8049106460025D9
:103660007B891BB93046FFF7D2FD0AE00DF1070157
:10367000384601F05FFF824638B93046FFF7C7FD94
:103680005546284602B0BDE8F0879DF80730082B64
:1036900001D07F2B12D103214846FFF76DFF23880D
:1036A000002BDDD0013B23802388B3F5007FD7D3E7
:1036B00000232380022388F80030D1E701210DF197
:1036C0000700FFF759FF9DF807300A2B01D00D2B9B
:1036D0000FD12388002BC3D01E4A1278002AE3D1D1
:1036E0001D4A0A21D154002323801A4B02251D7044
:1036F000B6E7208898F800C01749421CBCF1020FB9
:103700000B5492B20CD17B2B05BF1449012300232B
:1037100088F800300CBF0B7088F800302280C3E7B7
:10372000BCF1000FFAD07B2B228004D10B4A137816
:1037300001331370B8E77D2BB6D108480378013BFD
:10374000DBB20370002BAFD10A238B54CBE700BF51
:103750004498002064000020B11500204298002009
:10376000026A030010B50446408930B100F00EF83B
:1037700003692046BDE81040184710BD014B024ABE
:103780001A607047D8080020A4910300014B186804
:10379000704700BF68000020034B002814BF02469A
:1037A0001A46024B1A607047D808002068000020B3
:1037B00008B5FFF793FDD0F8600208BD002028F09F
:1037C0003BB9000038B505464FF49670FFF7FAFB99
:1037D000044608B3114919F033FE284619F090FF4A
:1037E000B0F5907F0BD82946E01D19F029FE284638
:1037F00019F086FF07300A49204419F021FE2046BF
:1038000019F07EFF074B01465B682046984720462B
:10381000BDE83840FFF714BC38BD00BF0B6A030099
:10382000326C03006C0000202DE9F04F022889B0B3
:10383000064600AF0C4640F09D80084619F060FF38
:10384000DFF868814E4BC8F8003081464D48621E53
:1038500012F8013FFBB93B7323787B2B39D120460B
:1038600001F0A0FD0546F0B94FF0000B5D46444B5A
:10387000454AC8F80030934234D36E468EB0434A6E
:1038800007F10C033221684618F0EEFF6846FFF797
:1038900099FFB54664E0C15C01F00301022908BF4D
:1038A000203B1370D4E73A4901F080FDD0F810B006
:1038B000BBF1000FDBD03749284601F077FD824687
:1038C00028B1354907F10C02584619F055F8D3468E
:1038D000CDE7324907F1080307F10C02204619F041
:1038E0004BF8C1E7196849B307F10C007B6019F088
:1038F00037FC7B68244A824600BB1B793BB1012B15
:1039000004D1FFF743FF0379012B00D00126FFF715
:103910003DFF83692BB15968D8F800201B7A5345C5
:1039200005DC012E0CD11E48FFF74CFF18E001EB1F
:103930000A10824204D00AF1010AF0E7103398E736
:10394000D8F80030B9689B685A4620469847064622
:10395000A0B119F0D5FE134B01465B68304698477D
:1039600015B1284601F014FB5FFA89F200212046C8
:1039700019F048F92437BD46BDE8F08F0A48D3E76F
:1039800000020000B9C0030090030000526A030067
:10399000166A03001F6A03002A6A03002E6A0300E6
:1039A000356A03006C000020486A03004898002034
:1039B00007B5FFF735FD074B07485B6802219847BD
:1039C000064B019301A828F05DF8054803B05DF8A7
:1039D00004FB00BF6C000020326C0300A4910300C4
:1039E000A195030001F04EB87FB5002306460C46B2
:1039F0000093FFF77BFC104905466B4601AA304651
:103A000018F0BAFFC0B2022807D095F8B8100B48DA
:103A100001F0B0FD0A4804B070BD012C06D804F0D6
:103A2000010385F8B83085F86440F3E7054821467E
:103A300001F0A0FD0448EEE72E6A0300696A030066
:103A4000A1950300756A03009A9503002DE9F341DF
:103A5000464B186800909B88ADF804304FF4AF7067
:103A6000FFF7B0FA054600287CD045F65A224049B7
:103A7000404FDFF8588118F05DFF3F49A81D19F04D
:103A8000DFFC3E4A3E4905F1110018F053FF00F1FA
:103A90001104FFF77BFE2E1902683A49304618F0F0
:103AA00049FF04443849394E6A46281918F042FF44
:103AB0000444374B374A3849281918F03BFF04F1C2
:103AC00021003649284419F0BBFC2934BE4205EBDD
:103AD00004003CD310F8013C31492C2B08BF04F101
:103AE000FF34281919F0ACFC30F0D6FC04342E1940
:103AF00002462C49304618F01DFF044406F088F8B1
:103B00002E1902462849304618F014FF044427496C
:103B1000281919F095FC221F2549A81C18F00AFF46
:103B20007B23A01C2349AB71284419F089FC224B4C
:103B300004345B68214628469847B4F5AF7F0DDD15
:103B40001E4B1F4A1F4840F2C51116F0FDFA56F8E9
:103B5000102B414618F0EEFE0444B7E72846FFF765
:103B60006FFA194D284602B0BDE8F081D56B03000D
:103B7000996A0300B0020000A06A0300F4CF0300BA
:103B8000AC6A0300BD6A0300D36A03008002000030
:103B9000E56A0300EE6A0300FA6A03000D6B030096
:103BA0001C6B0300216B03002F6B03002C740300BC
:103BB0009B6A0300326C03006C000020436B03001F
:103BC000C09103005B6B0300A1950300166B03001B
:103BD0002DE9F0410E1E88B0054617460BDD1E4943
:103BE000304419F02DFC284619F08AFD014628467C
:103BF000FFF7C2FC0026194B0793384619F080FDE9
:103C00000DF11C080446404619F07AFDC4F1240366
:103C1000B3EB400319D4124A0392A3EB6301CDE93D
:103C2000017100920F49CDF810805B104246284682
:103C300018F080FE284619F063FD01462846FFF77C
:103C40009BFC304608B0BDE8F08107493A4628465B
:103C500018F070FEEEE700BF326C03002D2D2D0032
:103C6000056A0300DB6B0300EF71030070B586B0DB
:103C70000646FFF733FB0446FFF738FB22490546AB
:103C800003AB30466A4618F077FE022806460BD092
:103C9000D4F8603233B119681C4801F06BFC1C4841
:103CA00006B070BD1B49F7E71B4903A819F058FA85
:103CB00028B91A4BC4F8603285F82402EFE7184996
:103CC00003A819F04DFA30B9164BC4F8603201233D
:103CD00085F82432E3E7144903A819F041FA18B92A
:103CE000124BC4F86032DAE70A4903A819F038FA2F
:103CF00028B90F4BC4F8603285F82462CFE70D482D
:103D000001F038FC0C48CBE7EC6B0300F36B0300CD
:103D1000A1950300066A0300016C0300AC030000D8
:103D2000076C0300C80300000D6C03009003000043
:103D3000A4910300166C03009A95030010B503F0DC
:103D40009FF9FFF75FFA044627F052FE2046FFF77F
:103D50005EFA014810BD00BFA195030038B50546C5
:103D60001EF0DCFA044698B90A480DF013F8044630
:103D700060B906F04DFD044630B9284603F0B6FDA3
:103D8000044628B106F07CF90DF026F81EF0A0FAE2
:103D9000204638BD000000207FB5002301A8019314
:103DA000FFF7DCFF18BB02A9019803F052FE04994B
:103DB000104801F0DFFBDDE902210F4801F0DAFBDA
:103DC00005990E4801F0D6FBDDE90221059B0C4860
:103DD00001F0D0FB019803F097FD06F051F90CF0CB
:103DE000FBFF1EF075FA074807B05DF804FB0648B4
:103DF000FAE700BF356C0300516C03006F6C0300E1
:103E0000896C0300A19503009A95030038B5054617
:103E10000C4692B120440A490A3418F08BFD272C35
:103E20000BDD0849281919F00BFB284619F068FC2E
:103E300001462846FFF7A0FB0024204638BD00BFFE
:103E4000AA6C0300326C0300F8B506460B46144614
:103E500042B11268FFF7BCFE676803460025227A6C
:103E6000954201DB1846F8BD2A011946BA5830467A
:103E7000FFF7CCFF01350346F1E7000013B5FFF76C
:103E8000C1F90446002027F0C5FD2046FFF7BFF921
:103E9000002301A80193FFF761FF70B9019803F0B7
:103EA00072FD019803F030FD06F0EAF80CF094FF83
:103EB0001EF00EFA024802B010BD0248FBE700BF38
:103EC000A19503009A95030007B5044B019301A83F
:103ED00027F0D8FD03B05DF804FB00BFA4910300F8
:103EE0002DE9F043A5B00446FFF7F8F92D2105466A
:103EF000204618F0F9FE002800F002812046824991
:103F0000824FDFF86482DFF8649218F0EBFF00263E
:103F1000044603961CB9012025B0BDE8F08303AA2E
:103F20003946204618F028FD012815D1039800F0E5
:103F3000EBFD013005D1039A754904A818F0FAFC8D
:103F4000CDE0039800F0E0FD28706F49002018F0E4
:103F5000C9FF01360446DDE703AA4146204618F0B2
:103F60000BFD01280CD1039800F0F2FD013002D1C5
:103F7000039A6849E1E7039800F0EAFDE870E4E796
:103F800003AA4946204618F0F7FC01280CD10398F3
:103F900000F03CFE013002D1039A5F49CDE703985F
:103FA00000F034FE6871D0E75C4903AA204618F09F
:103FB000E3FC01280AD1039800F042FE013002D14F
:103FC000039A5749B9E7039BAB71BEE7554903AA6A
:103FD000204618F0D1FC01280CD1039800F09EFD7A
:103FE000013002D1039A5049A7E7039800F096FDEB
:103FF000E871AAE74D4903AA204618F0BDFC012844
:104000000CD1039800F026FE013002D1039A4849F2
:1040100093E7039800F01EFE287296E7454903AA2D
:10402000204618F0A9FC01280CD1039800F01CFED2
:10403000013002D1039A40497FE7039800F014FE53
:10404000687282E73D4903AA204618F095FC0128D2
:104050000CD1039800F0E8FD013002D1039A3849F1
:104060006BE7039800F0E0FD28736EE7354903AA7B
:10407000204618F081FC01280CD1039800F07CFD4B
:10408000013002D1039A304957E7039800F074FDDC
:1040900068735AE72D4903AA204618F06DFC0128E1
:1040A0000CD1039800F0EAFD013002D1039A2849AF
:1040B00043E7039800F0E2FDA87346E7254903AA09
:1040C000204618F059FC012813D1039A3F2A0DD934
:1040D0003F2300932049002304A818F02BFC1F4B1A
:1040E00001465B6804A89847002015E785F8692217
:1040F0002BE7F3B2002B3FF428AF194922461CE707
:104100001849224619E700BFB06C0300B36C0300E6
:10411000BB6C0300DA6C0300F76C0300156D030041
:10412000206D0300396D0300426D03005B6D0300D9
:10413000666D03007F6D03008A6D0300A36D0300AD
:10414000AE6D0300C76D0300D16D0300E86D030081
:10415000F46D03000E6E03001A6E03006C00002065
:10416000526E0300696E0300D36C0300EE6C030013
:10417000F8B54FF49670FEF725FF0546FFF7AEF849
:1041800045F65A2206464449284618F0D3FB4349CF
:10419000A81D19F055F9307800F0BEFC40490246E0
:1041A00005F1170018F0C6FB00F11704F07800F0D5
:1041B000D9FC2F1902463B49384618F0BBFB044492
:1041C000707900F02AFD2F1902463749384618F059
:1041D000B1FB0444B07900F038FD2F190246334991
:1041E000384618F0A7FB0444F07900F0A5FC2F191D
:1041F00002462F49384618F09DFB0444307A00F0FF
:104200002EFD2F1902462B49384618F093FB044423
:10421000707A00F02EFD2F1902462749384618F013
:1042200089FB0444307B00F009FD2F190246234925
:10423000384618F07FFB0444707B00F0C2FC2F1955
:1042400002461F49384618F075FB0444B07B00F065
:104250001FFD2F1902461B49384618F06BFB04441A
:1042600096F869221849281918F064FB0444A21F23
:104270001649A81C18F05EFB7B23AB711449281962
:1042800019F0DEF8134BA11C5B68284698472846B6
:10429000BDE8F840FEF7D4BE996A0300E06E030063
:1042A000F26E0300FF6E03000B6F0300196F030033
:1042B000296F0300376F0300476F0300576F030038
:1042C000676F0300766F0300876F03009B6A03002C
:1042D000326C03006C00002010B58CB004AB0C49AC
:1042E00001AA044618F048FBC3B2012B05D1094CC2
:1042F000FFF73EFF20460CB010BD022B01D0064C4C
:10430000F6E72046FFF7ECFD0028F0D1F7E700BF05
:10431000976F0300A19503009A9503002DE9F74FCD
:104320004FF49670FEF74EFE444DDFF84081C5F81D
:104330000080044600283CD0FEF764FF019040480E
:10434000404FDFF82CA1DFF82CB119F0D9F97B68C8
:1043500001463B4898477B683B4802219847002626
:1043600042463A4B2A609A4227D3FFF70FFA027966
:10437000022A50D1FFF70AFA8269002A4BD0FFF7D0
:1043800005FA314682692046FFF75EFD06462E4952
:10439000A01919F055F8204619F0B2F97B680146CA
:1043A000204698470198FEF732FF2046FEF748FE68
:1043B000274C204603B0BDE8F08F92F80490B9F185
:1043C000000F13D12A68424518D1224A31462046AF
:1043D000FFF7FEFB0646B9F1020F0CD02A68314602
:1043E00012682046FFF712FD064604E0FFF7CEF9FB
:1043F0000279012AE6D02A681032B2E7524501D18B
:10440000154AE3E75A4501D1144ADFE714498A42C5
:10441000E1D1144ADAE7FFF7B9F90279012AB6D1F6
:10442000114DDFF8548006E0AA6931462046FFF7B7
:104430000BFD1C3506464545F6D3A8E748980020F5
:10444000F4CF03006C000020326C030090030000E6
:10445000A195030089950300739503004F95030010
:10446000200300006295030090030000000200009A
:1044700080020000F0020000E40300002DE9F84F84
:1044800007464FF49670FEF79DFD3E4E3E4D35605B
:104490000446002873D0FEF7B5FEDFF80891804689
:1044A0004D45356015D33949394D204618F0C8FFC0
:1044B000204619F025F9374B01465B68204698479E
:1044C0004046FEF7A4FE2046FEF7BAFD2846BDE8AA
:1044D000F88F2D79FFF75AF90379AB4206D133688B
:1044E000186858B9336803F11005D9E7002DF6D0E4
:1044F000FFF74CF90379012BF4D1F0E7394618F0B6
:104500002FFE0028EED13A462349224F204618F0CC
:1045100011FA204619F0F4F87B68014620469847C6
:104520003368DD680D21284618F0DEFBD8B9DFF8C6
:1045300078B02B465A464E21204618F095F982460F
:10454000204619F0DDF81549204418F079FF20467F
:1045500019F0D6F87B68014620469847BAF14D0F0E
:1045600008DD4D35E5E7284619F0CAF87B680146B5
:104570002846984733684B4595D2094DA0E7084D2A
:10458000A4E700BF4898002000020000A86F0300C5
:104590009A9503006C000020A06F0300326C0300AA
:1045A000A195030090030000F06B030030B587B0C5
:1045B0000C4615460E496B4603AA18F0DDF9012892
:1045C00004D0022808D0002007B030BD2A4621467A
:1045D00003A8FFF7A3FEF7E79DF800302A4621461F
:1045E00023B90DF10100FFF749FFEDE76846FAE74F
:1045F000CF6F0300FFF7DCB87047000007B5FFF787
:10460000F9FF019010B101A827F03CFA134B144CAC
:104610005D68A847C821684627F040FA013019D0E4
:10462000FFF7B4F8C3681BB1FFF7B0F8C368984749
:104630000020FFF7B1F81EF039F90098FFF7ACF849
:10464000009B9B680BB100209847236998471EF098
:104650002DF9DEE7FFF7D0FFF7E700BF288E030054
:10466000AC8E030007B541F2CC00FEF7ABFC41F283
:10467000CC020521CDE900210346084A0848002163
:104680001EF0CCF830B93821012003B05DF804EBFE
:10469000FEF7C6B803B05DF804FB00BF2670030048
:1046A000FD4500007FB5002306460C460093FEF74B
:1046B00021FE144905466B4601AA304618F05CF904
:1046C000C0B2022806D01048294600F053FF0F4818
:1046D00004B070BD012C0ED83DB10CB9FEF750F8F6
:1046E00004F00100FEF70CFEF1E7002CF8D00848BA
:1046F000FEF706F8F4E70748214600F03BFF0648BE
:10470000E6E700BF2E6A03002E700300A1950300A8
:10471000D1330000756A03009A950300F8B51DF0C7
:10472000FDFD044628B11F481F4C00F023FF204622
:10473000F8BD4FF40070FEF745FC054630B91B4844
:10474000194C00F017FF1DF0C3FDF0E7FEF75AFD0E
:104750008022064629462046FEF732FA04463046B5
:10476000FEF755FD3CB112480F4C00F003FF284600
:10477000FEF766FCE7E70F480F4F104E00F0FAFE19
:1047800055F824202146384600F0F4FE7F2C04D151
:104790000B480C4C00F0EEFEE9E7304600F0EAFE74
:1047A0000134EDE73A7003009A9503005A70030054
:1047B00081700300A1700300B2700300096B030055
:1047C000C4700300A19503002DE9F0412DED028B8B
:1047D000B6B041220021054605A818F013FA16AE1E
:1047E00000220023CDE902230021802230460191DE
:1047F00018F008FA1DF092FD30B16F4C204636B02B
:10480000BDEC028BBDE8F0810CF0C4FA0446002830
:10481000F3D16A49284618F065FB6849204618F02C
:1048200061FB4022014605A818F00CFB644905AB6A
:1048300013F8014BB4B98022314605A80CF04CFAAC
:10484000071E18DA5F4805A900F094FE26465A4C68
:104850000CF0C2FA1DF03CFD002ECFD03046FEF722
:10486000EFFBCBE70A5D02F00302012A08BF203408
:1048700003F8014CDCE75149204618F033FB0546AC
:10488000A0B95148514D05A900F074FE7C1E631C6F
:1048900006D14F48394600F06DFE00264D4CD7E753
:1048A000315D284600F066FE013CF0E7042F15DC80
:1048B000022F224621460EDC16F012FF019001ADB8
:1048C00026463A46294605A80CF0ACF900285ED0E9
:1048D000296841483AE016F0B7FFEFE7082F07DCF8
:1048E0002246214617F094F802ADCDE90201E7E730
:1048F0003846FEF767FB064630B39FED388ADFED9A
:10490000388A4FEA67082B78302B22D16B7803F076
:10491000DF03582B1DD100222846114616F0E0FE79
:1049200005B226F814502549002018F0DBFA0134AE
:104930004445054625D00028E5D12A4823463A4675
:1049400005A900F017FE82E7274805A900F012FE2E
:104950007DE72846002116F0B1FDB5EEC00AF1EE64
:1049600010FABBBFF0EE687A40EE487ABEEEEA0A73
:10497000FDEEE77AACBF10EE103A17EE903A1DB29A
:10498000CFE71A4805A900F0F5FD354699E70E482E
:10499000DFF8388005A900F0EDFDEC19AC4204D138
:1049A0000B48394600F0E6FD78E714F8011D404653
:1049B00000F0E0FDF2E700BF9A950300ED7A0300F6
:1049C000B9C00300D4700300F5700300AC7A030093
:1049D000FC700300A1950300A171030000000045D5
:1049E0000000804736710300097103007B710300EA
:1049F0002DE9F047B0B010AF80220021384618F002
:104A000001F91DF08BFC18B1194830B0BDE8F087F2
:104A10000CF0C0F904460028F6D1DFF85C80DFF81E
:104A20005C90DFF85CA06946A0B20CF08BF828B16E
:104A30000CF0D2F91DF04CFC0E48E6E76946404602
:104A400000F098FD8022394668460CF045F905468D
:104A5000461E002E05DA2946504600F08BFD013433
:104A6000E1E7B95D484600F085FD013EF1E700BF92
:104A70009A950300A1950300F5700300AC7A03003A
:104A8000FC700300F0B5C1B068461DF016FD0A21A8
:104A900004A81DF0D7FC134A1349144F05461448C7
:104AA00000F068FD04AC0026AE4211DB039A114908
:104AB000114800F05FFD019A10490F4800F05AFDBF
:104AC000029A0F490C4800F055FD0E4841B0F0BD68
:104AD0006369E2682146384600F04CFD013618341F
:104AE000E2E700BFD1710300DD710300F471030040
:104AF000E9710300047203000F7203001A720300CD
:104B00002C720300789A0300052804D009280CBFF2
:104B100009204FF0FF307047FFF7F6BF40F25233E5
:104B2000984207D041F69A2398420CBF01204FF0DB
:104B3000FF3070470020704730B1012841F69A20BD
:104B400018BF4FF0FF30704740F2523070470000FE
:104B500004381C289ABF024B18564FF0FF3070479C
:104B6000819A030003289ABF024B18564FF0FF307A
:104B7000704700BF7D9A0300B0F5807F17D009DC35
:104B8000402816D0802816D0202814BF4FF0FF30C0
:104B900003207047B0F5806F0FD0B0F5006F0ED0D6
:104BA000B0F5007F14BF4FF0FF303F2070471F204B
:104BB0007047072070470F2070477F207047FF2005
:104BC00070471F2815D009DC072815D00F2815D0ED
:104BD000032814BF4FF0FF30202070477F280FD0EC
:104BE000FF2810D03F2814BF4FF0FF304FF4007063
:104BF00070474FF4807070474020704780207047A6
:104C00004FF4806070474FF400607047A0F10903D3
:104C1000042B28BF4FF0FF307047A0F10903042B8D
:104C200028BF4FF0FF307047032802DC40EAE070F5
:104C30007047082818BF4FF0FF307047FFF7F4BFE8
:104C4000042828BF4FF0FF307047042828BF4FF0DA
:104C5000FF307047022828BF4FF0FF30704702280E
:104C600028BF4FF0FF307047022828BF4FF0FF30B9
:104C70007047022828BF4FF0FF307047012802DC40
:104C800040EAE0707047032818BF4FF0FF307047CC
:104C9000FFF7F4BF7047FEF76FBC002210B5044663
:104CA0001046A15CA1F13003092B0BD8A0F1300311
:104CB000032A01EB030002F1010218BF0001042ADC
:104CC000EFD110BDA1F14103052B02D8A0F13703AC
:104CD000EEE7A1F16103052B02D8A0F15703E7E746
:104CE0000020EEE72DE9F0470A688B6806465C1C59
:104CF000D018D35C222B0F46144440F0E180D1F849
:104D000004C025460023A91A614580F0D98029787E
:104D1000222919D1C3F10103281A3A69184490478E
:104D20008146002800F0CC808046AC4216D3002398
:104D300088F800301023C6E903393B68ED1A0135C5
:104D4000BD600120BDE8F0875C2905D10135A91AB5
:104D50008C4540F2B58001330135D4E723785C2BD4
:104D600006D0013408F1010288F800309046DCE7F3
:104D70006378752B0AD86D2B0FD8622B2AD023D8D5
:104D80002F2B39D05C2B37D0222B35D07B6948466E
:104D900098473B68E41ABC6095E06E3B072BF5D85A
:104DA00001A252F823F000BFE14D00008D4D00003C
:104DB0008D4D00008D4D0000E94D00008D4D00002F
:104DC000F14D0000FF4D0000662BDFD108F101021C
:104DD0000C2302E008F10102082302210C44C3E77E
:104DE00008F101020A23F8E708F101020D23F4E7B4
:104DF00008F101020923F0E708F10102EDE72B1B9E
:104E0000052BC3DDA01CFFF748FFA0F55C43B3F5FD
:104E1000806F8246BAD3A0F55843B3F5806F2CD289
:104E2000A31DEB1A052BB1DDA3795C2BAED1E37981
:104E3000752BABD104F10800FFF72FFFA0F55C4301
:104E4000B3F5806FA2D2214BC0F3090003EA8A2395
:104E5000034303F5803A0C21F020042202F1FF3CC9
:104E600058FA8CFCE0455FFA8AF320D1012A14BF7E
:104E7000034303F07F034244B0E77F280BD9B0F52A
:104E8000006F0CD3B0F5803F0DD3B0F5881FBFF491
:104E90007DAF0621E0E7062100200122DEE70621A2
:104EA000C0200222DAE70621E0200322D6E703F041
:104EB0003F0363F07F030CF801394FEA9A1AD1E7F8
:104EC000002C7FF466AF00203CE700BF00FC0F0021
:104ED00010B530B1016871B142688368934201D363
:104EE00006D010BDCC5C202CFBD801338360F4E7E6
:104EF000013A8260F5E70846F3E70000F8B50D4691
:104F00000446002834D0002931D08468FAB9194EFB
:104F100074B3236AC3B1AB4221D005F1FF3C013B1E
:104F20001CF8011F725C02F00302012A13F8012F22
:104F3000B05C00F003000F4608BF01F12007012814
:104F400008BF203297420FD02468E1E724687CB183
:104F5000216A21B1284618F003F90028F6D1236A06
:104F6000002B08BF002403E00029D9D1F7E70C4645
:104F70002046F8BDB9C0030010B503462820984765
:104F8000044618B12822002117F03CFE204610BD2F
:104F900070B5104D044604B970BDE3682668D905A4
:104FA00004D4A06870B920696B6888B9E3689B0570
:104FB00003D4206A08B16B68984720466B6898470D
:104FC0003446E8E7FFF7E4FFE368DA05EBD5EDE701
:104FD0009847EBE7740000202DE9F047064692B0B1
:104FE0000C46002900F0C680D1F80080B8F1000F0F
:104FF00000F0C0808D68D1F804902F1D4F450AD86D
:10500000AB49042208EB050017F0D6FE18B90423BB
:10501000F360A76080E005F1050AD1450AD3A549F0
:10502000052208EB050017F0C7FE18B90123F3604D
:105030005746EEE74F450BD89F49042208EB050081
:1050400017F0BAFE20B90223F36001237361E0E791
:105050004D4580F08F8018F80530222B08EB0500B5
:1050600006D12146304612B0BDE8F047FFF73ABE00
:105070002D2B03D0A3F13002092A57D800230DF1BC
:10508000080CDFF83C820193A9EB050567464FF059
:10509000010E10F8012B452A40D82A2A10D9A2F176
:1050A0002B01C9B20EFA01F111EA080F01D12E2A23
:1050B00006D101333F2B0CF8012B01D0AB42E8D1D4
:1050C00048336B44002501A9384603F8405C16F0CC
:1050D0008DF9DDF804A0BA4559EC108B4AD072A3C3
:1050E000D3E900234046494631F034F8C0B9734B48
:1050F00000224046494631F023F8A0B940464946CF
:1051000031F052F80823F360A3687061AAEB070A34
:105110005344C6E90689A36001202CE0652AC7E74D
:105120006FF00040EEE74FF00040EBE75B2B53D110
:10513000E368B3F57A7F1DD20133E36018F80530D8
:105140005B2B17D10135A5602046FFF7C1FEA36890
:1051500099450DD918F803205D2A0FD10027E3687F
:10516000013BE3602023C6E90273A768013750E7DB
:10517000013BA360002012B0BDE8F087013B4FF077
:105180000008A36047462069FFF7F6FE45468046C3
:10519000002800F09780EFB128604560A3680133D4
:1051A000A3602046FFF794FE21464046FFF714FF18
:1051B00060B12046FFF78CFED4E90123934205D26B
:1051C0002268D35C2C2BDED05D2BC8D03846FFF78D
:1051D000DFFECFE70746E1E77B2BCBD1E368B3F5F2
:1051E0007A7FC7D20133E36018F805307B2BC1D139
:1051F0000135A5602046FFF76BFEA3689945B7D936
:1052000018F803207D2A01D1002744E00025013B46
:10521000A3602F46A8462069FFF7AEFEA9460546C3
:1052200000284FD0002F3BD0C9F80000C0F80490F0
:10523000A3680133A3602046FFF74AFE21462846B3
:10524000FFF750FD0028C1D02046FFF741FE2B6933
:105250002B62D4E901239342C5F81080B6D22268AC
:10526000D25C3A2AB2D10133A3602046FFF730FE68
:1052700021462846FFF7B0FE0028A7D02046FFF7BA
:1052800027FED4E901239342A0D22268D35C2C2BC1
:10529000C1D07D2B9AD1E368013BE360402362E7F4
:1052A0000746C5E7AFF300800000C0FFFFFFDF4106
:1052B0003A7203003F720300457203000000E0C130
:1052C000E57F0004002F3FF455AF7FE72DE9F04361
:1052D000314F89B005460E46904600211C2201A898
:1052E0004FF0000917F08EFCC7E9009925B900249A
:1052F000204609B0BDE8F0832846019518F000FA71
:10530000264B0130029093E8070008AB03E9070041
:10531000FFF732FE0446002830D0019850B1039BBD
:10532000E3B9029B042B04D91D49032217F044FD65
:1053300088B101A8FFF7CCFD01462046FFF74CFEDF
:10534000C8B1B8F1000F0BD1002ED1D0019B039A48
:1053500013443360CCE703230393EAE74846E9E7C5
:1053600001A8FFF7B5FDDDE90223934203D2019ABC
:10537000D35C002BE8D02046FFF70AFEDDE90223CC
:10538000934201D332B1531E0EB1EA183260C7E91D
:105390000053ACE71346F7E74C9800207400002058
:1053A0005C72030000221146FFF790BF0022FFF756
:1053B000A5BD000008B528B9094B0A4A17210A48BB
:1053C00014F0C2FE19B9094B064A1821F7E782808A
:1053D00000220160C28082608281C38108BD00BF5B
:1053E00060720300FC9A030065720300DC72030024
:1053F00010B528B90D4B0E4A0E482D2114F0A4FE0D
:1054000082884489C388D31A121B8489121B914253
:105410009BB209DCC2899A4282BF83810023C38088
:10542000C3880068184410BD0020FCE760720300C8
:10543000E69A03006572030010B528B9084B094AC3
:105440000948422114F080FEC38882880B44B3FBD4
:10545000F2F402FB1433C38043891944418110BD27
:1054600060720300D19A03006572030038B50D46DF
:10547000044628B9084B094A0948492114F064FE3A
:105480000121FFF7B5FF28B1057001212046FFF784
:10549000D3FF012038BD00BF60720300BE9A030035
:1054A000657203002DE9F0410B46054628B91D4BF6
:1054B0001D4A68211D4814F047FE19B91C4B1A4AB1
:1054C0006921F7E7468916B3964228BF16468489B4
:1054D0000289B0F8048001681444A4B2A8EB040760
:1054E000BFB2BE42114415D918463A4618F058F8D2
:1054F0002968F21B384418F053F834440023AB8178
:10550000A4EB08046B89A4B29B1B2C816B813046F1
:10551000BDE8F0813246184618F042F82C89344430
:10552000F0E700BF607203009E9A030065720300FB
:10553000E572030008B528B90A4B0B4A5B210B48FA
:1055400014F002FE19B90A4B074A5C21F7E74389B8
:1055500033B10122FFF7A6FF003818BF012008BDB4
:105560001846FCE760720300AD9A03006572030001
:10557000C78803000FB437B5114C06ABD4F800024E
:1055800053F8042B0193402104EB801017F096FA96
:10559000D4F8005204EB8515284618F0B1F8094BF1
:1055A00001465B6828469847D4F80032013303F07F
:1055B0000703C4F8003203B0BDE8304004B07047C0
:1055C000549800206C000020014B1870704700BFF9
:1055D000589A0020014B1878704700BF589A002055
:1055E00008B51CF075FE014630B10948FFF7C2FF4F
:1055F00007210120FDF714F906481DF0D3F900F04A
:1056000039FC1CF073FEBDE80840FDF76FBB00BF1E
:10561000EA7203005C9A002037B500F079FB04467B
:1056200038B101461748FFF7A5FF21460120FDF7D5
:10563000F7F81DF0B0F8144C606018B9382101205B
:10564000FDF7EEF84FF40060FDF7BCFC01254FF4C8
:105650000062A0600346CDE900250C480C4A0021F9
:105660001DF0DCF8206018B938212846FDF7D8F87D
:1056700000F0E8FB20B103B0BDE83040FFF7B0BF59
:1056800003B030BD117303005C9A00201D58000068
:105690003C730300000000002DE9F04F2DED028B5C
:1056A00083B008EE103A0E9E81460F461546002E36
:1056B00040F0898006294FF4967084BF01260627A2
:1056C000FDF780FC0446002C00F08D80F8EEC87ACF
:1056D000DFF844B117EE900A30F05EFA4CA3D3E93C
:1056E000002330F0B1FA30F05FFD414945F65A220F
:1056F0008046204617F01EF9204618F001F83D4973
:10570000204417F09DFE4FF0000A204617F0F8FFE6
:1057100057455FD81EB13849204417F091FE204606
:1057200017F0EEFF6B780193AB7800930138EB78BC
:105730002A793249204417F0FDF8204617F0E0FF9F
:105740002F494246204417F0F5F8204617F0D8FFBD
:1057500010990F9B642249425B4291FBF2F602FBD7
:10576000161193FBF2F5019102FB1533109991FB91
:10577000F2F1204400910F9991FBF2F2214917F0C8
:10578000D9F8204617F0BCFF1F49204417F058FEF7
:10579000204617F0B5FF1D49821FA01C17F0CAF85C
:1057A0007B23A371204617F0ABFF01462046FDF78F
:1057B000B1FE05462046FDF743FC284603B0BDEC8C
:1057C000028BBDE8F08F4FF41670FDF7FBFB00264F
:1057D000044678E719F80A205946204417F0AAF839
:1057E0000AF1010A91E74725E7E700BFAFF3008020
:1057F000996A03004573030055730300587303004F
:10580000787303007F730300347903009B6A0300FD
:105810000000000084D7F73F4F7303002DE9F04FDD
:1058200087B000F063FA044600B32F4F0026FE60F5
:10583000FDF7E8FC054630462EF0ECFF2846FDF764
:10584000E6FCFB6853B978684FF0FF3205A91CF0FD
:10585000CAFF0028F5D1059B012B0BD10223FB6069
:10586000FB68022B3BD007B0BDE8F08F0520FDF7A9
:1058700003FDD6E7FDF7C6FCB4F88059B4F8826999
:10588000AD1BFDF7C4FC2B0726D09822724304EB16
:10589000020914F802A0B9F994B002F102088132A9
:1058A000A51800F02FFAD9F890300293D9F88C306F
:1058B000A0440136CDE900032A465B4651464046E6
:1058C00006F00F06FFF7E8FEFDF79CFCA4F88269DE
:1058D000FDF79DFCFDF7B6FD1CF0E8FFB1E70120E8
:1058E000FDF7CAFCBCE700BF5C9A002008B5074B77
:1058F0001A6852B1586802211CF06CFF28B1BDE84B
:1059000008403B210120FCF78BBF08BD5C9A0020BA
:10591000024B1868003818BF012070475C9A0020BD
:1059200007B5022000F0E8F9044B019301A826F026
:10593000A9F8034803B05DF804FB00BF9003000022
:10594000A1950300F8B54FF49670FDF73BFB0546B3
:10595000002869D0FDF756FC064600F0C7F945F669
:105960005A2207463149284616F0E4FF3049A81D5F
:1059700017F066FDB7F888292E4905F1160016F0D4
:10598000D9FF00F11604B7F88A292B49281916F017
:10599000D1FF044497F88C292849281916F0CAFF2A
:1059A0000444B7F884292649281916F0C3FF044493
:1059B000B7F886292349281916F0BCFF0444B7F824
:1059C0008E292149281916F0B5FF0444B7F890290B
:1059D0001E49281916F0AEFF044497F892291C4975
:1059E000281916F0A7FF0444D7F89C29194928194B
:1059F00016F0A0FF0444A21F1749A81C16F09AFF36
:105A00007B23AB71284617F07BFE1449284417F01E
:105A100017FD134BA11C5B68284698472846FDF7E5
:105A20000FFB3046FDF7F3FB0E48F8BD996A030003
:105A3000AD730300BE730300CB730300D873030080
:105A4000E5730300F1730300FD7303000B7403009F
:105A500017740300237403009B6A0300326C030075
:105A60006C000020A195030008B5054B186800F6EE
:105A700084102FF07FF8BDE8084000202EF0CABE49
:105A8000709A0020FFF7F0BF2DE9F04F8D4B2DED00
:105A9000068B1C6889B00746002C00F00E81B4F814
:105AA0008059B4F8823905F1010AA3EB0A031B07F8
:105AB00000F0E58098266E4306F18100FF21204426
:105AC0002EF06CFE2FF00EF8A3193A68A3F894009C
:105AD000C3F88820D4F89C390133C4F89C393A7A49
:105AE00012F0020200F0D9800023A353FDF7FAFB65
:105AF00006462EF0FDFC744B9FED747ADFED747A50
:105B000020F0100098424FF0000302A814BF17EED7
:105B100090BA17EE10BA8DF81D302FF02BF973796B
:105B20009FED6C7ADFED6C7A9DF81C60092B039B6E
:105B30002CBF17EE907A17EE107ADDED027A9B08F3
:105B4000B8EE679A07EE903A049B9B08B8EEE7AA76
:105B500007EE903A059B9B08B8EEE78A07EE903A6D
:105B6000F8EEE79ADDED067A29EE099AF8EE677A03
:105B700006EB4606C7EE897A7600F6B217EE900A73
:105B800030F00AF841EC100B1BF03EFF38468DED6B
:105B9000000B30F001F88046304689462FF0EAFFCE
:105BA0004E4B06460F460022DDE9000130F04CF86E
:105BB00042464B462FF092FE28EE088ACDE90001BE
:105BC0000AEE0A8A58462FF0E7FF09EEA98A024634
:105BD0000B46DDE900012FF081FE32463B462FF0F7
:105BE0007DFE30F029FBC8EE097A08EE900A17EE28
:105BF000900A2FF0D1FF41EC100B1BF005FF374B43
:105C000051EC100B002230F01FF842464B462FF0AB
:105C100065FE32463B462FF061FE30F00DFB9FEDF6
:105C2000307AF4EEC78AF1EE10FA07EE900A3ED40D
:105C3000F5EEC08AF1EE10FA39DCF4EEC77AF1EE37
:105C400010FA37D4F5EEC07AF1EE10FA32DC9FED9F
:105C5000257A68EE878A67EE877AFDEEE88AFDEEA0
:105C6000E77A982303FB0545C5ED238AC5ED247A21
:105C7000FFF74EFE18B10AF00F0AA4F880A9FFF74B
:105C800035FE04F684102EF075FF002009B0BDEC3F
:105C9000068BBDE8F04F2EF0BDBDF9887F2928BFE7
:105CA0007F21B01CA15320442EF0E4FE1EE7DFED5F
:105CB0000E8AC2E7DFED0C7AC9E709B0BDEC068BAE
:105CC000BDE8F08F709A00200203CADECDCC7C4282
:105CD00033B34C429A99E3C26666F3C20000244093
:105CE0000000F0C20000C84200000000014B18682C
:105CF000704700BF709A0020014B1860704700BFCA
:105D00006C9A0020014B1868704700BF6C9A002005
:105D100070B58CB01CF002FB30B107210120FCF7FC
:105D20007FFD07200CB070BD3E4C236823B94FF4B3
:105D30001A60FDF747F92060206800286FD04FF403
:105D40001A62002116F05EFFFDF7CCFA05461CF042
:105D5000B7FA06460028E0D1FDF754FA044630466B
:105D60002EF0F8FB064618B12046FDF750FAD8E7AA
:105D70001CF0DAF92EF0BCFB1CF042FE01283ED1EB
:105D80002948FFF7F7FB28462EF022FC18B107211F
:105D90000120FCF745FD00202EF05CFE00202EF0D7
:105DA00043FD002108462EF019FE302200216846EE
:105DB00016F028FF03202EF003FF03202EF0BAFB7D
:105DC0001A4B01931A4B029368461A4B03932EF019
:105DD00073FD0222002118482EF08EFD01202EF0C6
:105DE00095FE01202EF0B6FEFDF778FA90F86902D4
:105DF0002EF0FAFE2046FDF70AFA002092E702286C
:105E000002D10E48AE73BCE72EF072FB01460C487F
:105E1000FFF7B0FB2046FDF7FAF9FF2082E74820A4
:105E200080E700BF709A002035740300895A000093
:105E3000695A0000855A000080D003245A74030078
:105E40008774030010B51CF029FA044648B10146D6
:105E50000648FFF78FFB01200721FCF7E1FC072034
:105E600010BD0348FFF786FB2046F9E7AA7403003C
:105E7000E074030010B5044C206818B1FDF7E0F899
:105E80000023236010BD00BF709A002010B5054CA0
:105E9000206830B101F054F9206801F035FD00238D
:105EA000236010BDB89A002010B5054C206818B1C9
:105EB000FDF7C6F8002323600023A38010BD00BFB8
:105EC000749A002010B5094C236833B120684FF054
:105ED000FF31BDE810401CF0B4BB1CF095FB206006
:105EE0000028F3D16FF0100010BD00BF809A002091
:105EF00010B5094C236833B120684FF0FF31BDE87D
:105F000010401CF09EBB1CF07FFB20600028F3D1EA
:105F10006FF0100010BD00BF7C9A0020024B186883
:105F200008B11CF0B2BB7047809A002070B51A4DC2
:105F3000AB7873B3194B186858B3194C236843B343
:105F4000184E337853B9FFF7BDFF28B902232B70E1
:105F50000023EB70FFF7E2FF002416E001F0F1FCF4
:105F60002168114802F0F6FF044680B10F4B10483B
:105F70005B681F219847FFF7A5FF20B904232B700A
:105F8000E870FFF7CBFF00233370204670BD307000
:105F9000D9E76FF00A04F8E780000020B89A0020E3
:105FA000989A0020949A00209C9A00206C0000206F
:105FB00004750300024B186808B11CF066BB7047FB
:105FC0007C9A00200CB4B3B5074618B3006818B328
:105FD000BD881DB321EAE174A54206D86C1E204697
:105FE00002B0BDE8B04002B070472D1B07AB069A67
:105FF00001932946204416F061FD031E03DA3B6835
:1060000000221A55EBE7AB422ABFBC88E41804F122
:10601000FF34E4E70446E2E70446E0E72C46DEE727
:106020002DE9F04F082885B00F46154600F0CC80CA
:10603000092800F01181012840F05581FFF742FF47
:1060400038B9AA4AD2F884300133C2F88430FFF755
:1060500065FFFFF74DFF8246002840F04481D7E9F5
:10606000003202929A6801925A68009201461B68B7
:106070009F4ADFF8C0B22846FFF7A4FF3E4601461C
:106080007B689A450DDB9B4A2846FFF79BFF9A4B9E
:1060900001465B682868984705B0BDE8F04FFFF7F8
:1060A00089BFB27A3389272A94BF5BF82220934AAA
:1060B00000922846924AFFF785FFB37A0446002BE8
:1060C00078D133698F4A01462846FFF77BFFF37E7C
:1060D0000446DBB1B6F91E001CF0E6FC10EE100A17
:1060E0002FF05AFD8046B6F91C0089461CF0DCFCF6
:1060F00010EE100A2FF050FDCDE90089CDE9020124
:10610000814A21462846FFF75DFF044696F8213074
:10611000DBB1B6F924001CF0C7FC10EE100A2FF01A
:106120003BFD8046B6F9220089461CF0BDFC10EE0E
:10613000100A2FF031FDCDE90089CDE90201734A43
:1061400021462846FFF73EFF0446337E7BB1B6F971
:1061500014001CF0A9FC10EE100A2FF01DFD6C4A73
:10616000CDE9000121462846FFF72CFF0446737E47
:106170007BB1B6F916001CF097FC10EE100A2FF058
:106180000BFD644ACDE9000121462846FFF71AFFBE
:10619000044696F8260068B11CF09AFC10EE100A2E
:1061A0002FF0FAFC5C4ACDE9000121462846FFF7B2
:1061B00009FF04462146594A2846FFF703FF0AF122
:1061C000010A014620365BE7FFF792FEB8B93B793A
:1061D0007979032B96BF524A484B52F82330514AE3
:1061E00052F82120009200214F4A2846FFF7EAFE8C
:1061F000414B01465B6828689847FFF7DBFEFFF7D5
:1062000061FE00286FD1394BD3F888200132C3F8E2
:1062100088203A7983F89020797983F89110022ABE
:1062200008D0032A0BD0012A11D005B0BDE8F04FE9
:10623000FFF774BE01221A703C4B1A70F5E73B4A17
:106240001070DA780AB10422F7E70222F5E7374A3C
:10625000187010705880E8E7FFF74AFE04460028DF
:1062600041D197F8683001933B79009301463B6830
:106270002F4ADFF8C480DFF8C490DFF8C4A02846B6
:10628000FFF7A0FE3E46014697F86820E3B29A4227
:1062900014D8184A2846FFF795FE174B01465B684D
:1062A00028689847FFF786FEFFF70CFED8B90F4A1B
:1062B000D2F88C300133C2F88C30B6E7082CE8D025
:1062C000327CD6F80CC03389082A94BF59F82200D2
:1062D0004046CDE900C052462846FFF773FE013420
:1062E00001460C36D0E705B0BDE8F08F80000020F5
:1062F00034750300347903006C000020247503001A
:1063000093750300B7750300C9750300EB750300AF
:106310000D7603001C7603002B760300F376030052
:106320005CA003005C9C03003D760300949A00206F
:106330006D7603006CA003002C7503000CA1030014
:10634000BC7603002DE9F843254DAB78002B43D0F4
:10635000DFF8A880D8F8000000283DD0DFF8A09032
:10636000D9F80030002B37D01E4F3B781BB10024EA
:106370002046BDE8F88301F0D3FA1B4E044668B10D
:1063800073681A4813219847FFF79CFD0028EFD146
:1063900004232B70E870FFF7C1FDE9E7D9F800107E
:1063A000134802F0CEFD044640B173681148202125
:1063B0009847D8F8000001F0C4FAE5E701243C70E2
:1063C000FFF780FD18B92C70EC70FFF7A7FD73681C
:1063D000094810219847CAE76FF00A04C8E700BFD0
:1063E00080000020949A00206C000020F5760300C5
:1063F0009C9A0020097703002A770300B89A0020AE
:10640000989A002010B5FDF7C1F968B1046874B11D
:106410000849204616F0A4FE38B10749204616F078
:106420009FFEB0FA80F0400910BD0120FCE7204635
:10643000FAE700BF016C0300076C0300054B1A6804
:1064400001461AB1586808B11CF0C4B96FF00A00CF
:10645000704700BF849A002008B5FFF7D3FF08B942
:10646000044808BD0320FFF7E9FF0028F8D00248E0
:10647000F7E700BFA19503009A95030013B5134CED
:10648000236803BB1CF087F9606018B9382101202C
:10649000FCF7C6F94FF4C050FCF794FD4FF4C0521E
:1064A0000321A0600346CDE900210948094A0121E2
:1064B0001CF0B4F9206030B93821012002B0BDE8E9
:1064C0001040FCF7ADB902B010BD00BF849A0020A7
:1064D000216900003B77030013B5134C236803BB0D
:1064E0001CF059F9606018B938210120FCF798F9BF
:1064F0004FF4C050FCF766FD4FF4C0520321A0607A
:106500000346CDE900210948094A00211CF086F91B
:10651000206030B93821012002B0BDE81040FCF7FE
:106520007FB902B010BD00BF849A0020216900002D
:106530003B77030010B5FCF7D9FE0446FFF762FF76
:1065400048B1FDF723F90649006816F009FE003846
:1065500018BF012010BD94F824020138F8E700BFED
:10656000076C03002DE9F04F0023B9B0CDE90633E5
:1065700080460D4649B160B1D1F82032002B08DCCD
:10658000754B76485B681A219847012039B0BDE801
:10659000F08FDFF80C922B68714FDFF808A2C9F872
:1065A000003000233B608AF80030FFF77DFC4FF499
:1065B0008050FCF707FDDFF8F0B1CBF8000030B9F0
:1065C000654B68485B68112198474720DEE7664EB7
:1065D0004FF480533046ABF8043000F093FD024690
:1065E000E0B15D4B61485B681421984700243C6032
:1065F000FFF74CFCFFF758FC8AF80040FFF762FCFD
:1066000001460028C1D15A4B9222184616F0FAFAD8
:10661000042200F8022CFFF781FCB6E705F108041C
:106620003068214600F02AFF20B14B4B51485B688F
:106630002821DAE705900121306801F0BEF9E989E7
:10664000306801F0ABF9059B0093CDF804B04A4BDC
:106650004A4A31684A4802F01DFC20B13E4B494885
:106660005B681721C1E7464802F045FC834640B10C
:10667000394B45485B6820219847414802F036FC79
:10668000B4E742493E48424E02F03CFCB0FA80F387
:106690005B0986F88030D9F80010394806AB5A46B5
:1066A00002F048FC20B12C4B3A485B681F21E3E71D
:1066B000079933483960224600F026FF044648B166
:1066C000254B35485B682221984739682C4802F0F1
:1066D0004AFCD2E7B8F1000F05D005F1E00BD5F880
:1066E0002032A34204DCFFF7EDFB28B300204DE786
:1066F0005A463968224802F03FFC0FFA80F9B9F196
:10670000000F0BF1280B15DA282303FB045348462E
:10671000B3F8E4501BF088FE2346CDE90190C02178
:106720001E4A009508A816F09FF80B4B01465B68BF
:1067300008A8C9E70134D2E7012373800223C6E920
:10674000210086F801803370C6F88C00A6F890000E
:10675000FFF7E4FBCAE700BF6C00002040770300AE
:10676000989A00205B770300B89A00206D770300A9
:106770008200002082770300AB77030021600000D5
:106780009C9A0020B3770300CB770300840000209D
:1067900080000020EC7703000C7803002F780300C2
:1067A00014010020949A0020749A00202DE9F04FE3
:1067B000DBB0FCF7EBFF00284CD005682B4B002D1D
:1067C00008BF1D46FFF77EFB002847D1284A1378F3
:1067D000042B96BF2749284F51F8237092F8803038
:1067E000002B39D092F83B10244E254B002918BFBE
:1067F0001E46D2E9219AD2F88CB092F8908092F895
:106800009140FFF78BFB1F4B1F4A19780892B8F194
:10681000030F98BF1D4B1E4A94BF53F828301D4BE1
:1068200052F82420CDE90071CDE90632CDE904AB60
:10683000194A2B46CDE902694FF4A0710AA816F057
:1068400013F8164B01465B680AA8984714485BB0DA
:10685000BDE8F08F054DB5E7124ECAE70024114E92
:10686000114FA046A346A246A146CCE7066A030004
:106870008000002030A103002C750300797803000C
:106880007C780300949A0020387903005CA0030010
:106890005C9C030024750300857803006C000020D5
:1068A000A1950300717803008078030070B5164D40
:1068B0002B780BB1FFF73AFB144C154EA3786BB154
:1068C000316859B1134802F04EFB20B1124B134806
:1068D0005B68212198470F4802F008FB00233360D2
:1068E0002B70FFF7D3FAFFF7DFFAFFF7EBFA014659
:1068F00048B965780548942216F084F96570BDE8BA
:106900007040FFF70BBB70BD949A00208000002000
:10691000989A00209C9A00206C0000204D7903007A
:10692000F7B502232D4C0193051E4FF000032C4FA9
:10693000E36018BF0125E36833B10223E360E36835
:10694000022B47D003B0F0BD019B013B032B16D8AF
:10695000DFE803F035021B1EBB785BBBFCF7C6FC0F
:1069600001462846FFF7FEFD20B3FFF7ABFA30B92A
:106970001B4B04221A700022DA70FFF7CFFA60680E
:1069800000BB0A20FCF778FCD5E7FFF7CFFAF6E763
:10699000FFF7D0FD0646FFF795FA20B9104B03220A
:1069A0001A70FFF7BBFAFFF781FFFCF79FFC014667
:1069B0003046D7E7FFF7C6FC0028E0D0D5E7012333
:1069C000E360B8E74FF0FF3201A91BF00CFF00288D
:1069D000D7D1B0E70120FCF74FFCB0E7849A002044
:1069E0008000002010B50A4C0A481BF0DBFFFFF7BF
:1069F0005DFF206818B11BF018FE00232360064CD1
:106A0000206818B11BF011FE0023236010BD00BFE9
:106A1000809A0020849A00207C9A002038B5054690
:106A2000FCF764FCD82204460021083016F0EAF88E
:106A30004FF4A272002104F1E00016F0E3F8002206
:106A40000123A2802362002D45D0E28140F2011291
:106A500023822281C4F82032A4F8E43000200021EF
:106A6000C4E90A012A2319214FF41660C4E90C0174
:106A70002360C8210023C4E90E13194D84F8253280
:106A8000237384F8683084F8B83084F86630A364DF
:106A9000144B0222C4E913536281134B6365012234
:106AA00040F2067384F86B2084F8C02084F8C62076
:106AB0004FF0407184F844204FF48072A4F86420B1
:106AC000A4F858304FF6FF7208232164A4F846203A
:106AD00084F85A3038BD2582E3812581BEE700BFA6
:106AE000090A030102000001020304052DE9F04F29
:106AF000D9B005460F46FCF7F9FB964904462846EF
:106B000016F0F0F9002605468022314610A80796B7
:106B100016F078F80DB9012052E08F4907AA2846EF
:106B200015F02AFF012819D10798FDF7EDFF013074
:106B30000BD00798FDF7E8FF84F84C00854900204A
:106B400016F0D0F901360546E4E7079A834930A8E4
:106B500015F0F0FE824B01465B682EE0814907ABE1
:106B600010AA284615F008FF022834D19DF84030BD
:106B7000422B28D1079B0022033B84F86820032B7B
:106B800014D8DFE803F002090B11012384F84E301A
:106B9000022384F85030D1E70323F7E7012384F878
:106BA0004E3084F85020C9E70323F8E76E4930A837
:106BB00016F046FC6A4B5B68132130A8984700200A
:106BC00059B0BDE8F08F694930A816F039FC644B24
:106BD0000F215B68F1E7664907AA284615F0CCFE4D
:106BE00001280DD1079BB3F5166F01D32363A5E7E9
:106BF000604930A816F024FC594B20215B68DCE783
:106C00005D4907AA284615F0B7FE01280BD1079B5E
:106C10000BB1A36392E7594930A816F011FC504B11
:106C20001F215B68C9E7564907AA284615F0A4FE4C
:106C300001280DD1079B5A1EFE2A01D863637DE708
:106C4000504930A816F0FCFB454B22215B68B4E7A5
:106C50004D490422284616F0AFF860BB2B7905F1A8
:106C600004080BB94949D7E7404616F049FD7F288B
:106C7000F8D8414610A816F0E3FB454910A816F0D5
:106C80006FFA10B90123A37258E7424910A816F011
:106C900067FA08B90223F6E73F4910A816F060FA30
:106CA00008B90323EFE73D4910A816F059FA002868
:106CB000D8D10423E7E73A4907AA284615F05CFE35
:106CC00001280BD1079B0BB1236037E7354930A86A
:106CD00016F0B6FB224B16215B686EE70FAB0593EF
:106CE0000EAB04930DAB03930CAB02930BAB019370
:106CF0000AAB00932C4909AB08AA284615F03CFEC4
:106D000008280BD108AB04F1520204F15A0153F8E0
:106D1000040B02F8010F8A42F9D10FE723492846F4
:106D200016F01EFA10B90123237307E720492846FD
:106D300016F016FA18B9012384F84030FEE61D4912
:106D400007AA284615F018FE012835D1079BE381D4
:106D5000F4E600BFB06C0300B36C0300BB6C03002F
:106D60006C0000206F7903007E79030092790300A4
:106D7000A2790300AA790300CB790300D479030038
:106D8000F4790300FD790300207A0300257A0300DB
:106D9000457A03004B7A0300517A03005B7A0300C3
:106DA000657A03006B7A0300827A0300B17A0300EC
:106DB000B77A0300BB7A030068490622284615F01B
:106DC000FBFF8046002840F09580AB7905F106096D
:106DD0003BB9634930A816F033FB624B1C215B685A
:106DE000EBE6484616F08CFC7F28F2D8494610A8FE
:106DF00016F026FB6FB14FF4A272414604F1E00099
:106E000015F000FF10224146A01815F0FBFEC4F853
:106E100020809DF84030303B092B11D810A857B185
:106E200013F0BEF9012380B2A4F8E400C4F82032C4
:106E30002082236282E613F0B3F901232082F8E76F
:106E4000002F53D110AA4FE0484613F0A9F9282289
:106E500002FB08FA1FFA80F90AF1E0000021204441
:106E600015F0D0FE04EB0A0308F10808A3F8E4903B
:106E7000D4F8203224F818900133C4F82032236269
:106E8000002D3FF45BAE01352B78002B3FF456AE5E
:106E9000A946013599F80030093BDBB2172B04D81D
:106EA000314A22FA03F3DB07F2D43049484615F0A1
:106EB000FDFF054608B180F800B099F80030A3F155
:106EC0003002092A0DD8D4F82082B8F1070FBBDDB3
:106ED0002749082230A815F02DFD224B26215B689A
:106EE0006BE6002BCCD04A46224930E610AD4FF07D
:106EF000000BC9E7204907AA284615F03DFD0128E7
:106F00000CD10798FDF782FE013005D00798FDF7F8
:106F10007DFE84F84D0011E618497DE6184907AA60
:106F2000284615F029FD012810D10798FDF7F6FD38
:106F3000013003D0079B84F85230FFE5114930A897
:106F400016F07EFA074B19215B6836E6F3B2002B88
:106F50003FF4F4AD0C492A46F9E500BFC37A0300BB
:106F6000CA7A03006C00002013008000E77A030057
:106F7000EF7A0300177B0300EE6C0300377B0300FE
:106F8000396D0300577B0300717B0300F8B506469B
:106F90000D4681F00107FCF7A9F904469EB12D21A9
:106FA000304615F0A1FE70B12846FFF737FD29469F
:106FB0003046FFF79BFD28B1012384F8253284F881
:106FC00024720120F8BD94F82532022B03D194F8E5
:106FD0002432BB42F3D02846FFF720FDEFE7000044
:106FE00037B50546FFF7A6FA0446FFF70BFA20B3BC
:106FF0002D21284615F078FE044630B1194B1A4869
:107000005B683021984719480CE0FEF75BFF28B910
:10701000174B01221C78DA70FEF780FF154B1B78A6
:1070200013B1154803B030BD042C0CBF204602201C
:10703000FFF704FA0028F4D0E5E721462846FFF7D9
:10704000A5FF0028DFD084F0010400F083F864423B
:107050000A4B04F01C041C4401A8019424F012FD06
:10706000DFE700BF6C000020877B03009A950300D8
:1070700080000020949A0020A1950300AC0300003A
:1070800010B5FCF733F990F82532044633B990F87F
:107090002402B0FA80F04009FFF7C0FC022384F814
:1070A000253210BD07B50121FFF770FF50B100F088
:1070B00051F8054B019301A824F0E4FC034803B008
:1070C0005DF804FB0248FAE7AC030000A195030059
:1070D0009A95030007B50021FFF758FF50B100F063
:1070E00039F8054B019301A824F0CCFC034803B008
:1070F0005DF804FB0248FAE7C8030000A19503000D
:107100009A95030038B505461BF008F9044698B96E
:107110000A4809F03FFE044660B903F079FB0446D3
:1071200030B9284600F0E2FB044628B102F0A8FF7F
:1071300009F052FE1BF0CCF8204638BD00000020BC
:1071400008B502F09DFF09F047FEBDE808401BF0BE
:10715000BFB800002DE9F0434FF4006087B0FBF7A3
:1071600031FF044638B9A44BA4485B68122107B02C
:10717000BDE8F0431847FCF7B9F8A1490546204699
:1071800016F05EF9204616F0BBFA2B689D4AC0F552
:107190000061204415F068FB204616F0B1FA9A4AC7
:1071A00095F84C30C0F50061204415F05DFB204699
:1071B00016F0A6FA6A7A0146C1F500612018002A85
:1071C00000F0C580914B924E012A18BF3346914A78
:1071D00015F04AFB204616F093FAAB7A013BDBB27E
:1071E000032B96BF8C4A8A4B52F823308B4A0146B8
:1071F000C1F50061201815F037FB204616F080FA23
:107200002B6B874AC0F50061204415F02DFB20460A
:1072100016F076FAAB6B834AC0F50061204415F096
:1072200023FB204616F06CFA7F4A6B6BC0F50061B9
:10723000204415F019FB204616F062FA2A7B01461D
:10724000C1F500612018002A00F08380774B704E52
:10725000012A18BF3346764A15F006FB204616F081
:107260004FFA95F84010734A734B002918BF134624
:10727000C0F50061714A204415F0F6FA204616F078
:107280003FFA95F84E200146012A2044C1F50061DD
:1072900061D06B4B5E4E032A18BF3346694A15F026
:1072A000E3FA204616F02CFA95F85030664AC0F5FD
:1072B0000061204415F0D8FA204616F021FA95F81E
:1072C0004D30624AC0F50061204415F0CDFA2046E9
:1072D00016F016FA95F8582095F85330049295F860
:1072E0005720039295F85620029295F85520019266
:1072F00095F854200092C0F50061554A204415F0DD
:10730000B3FA204616F0FCF995F85A2095F8593052
:107310000092C0F500614F4A204415F0A5FA2046BE
:1073200016F0EEF9EB894C4AC0F50061204415F0E7
:107330009BFA2B7A012B57D0204616F0E1F92B8AC5
:10734000464AC0F50061204415F08EFA32E0444B05
:107350003DE7444B7FE7444BA0E7282305F1E402D7
:107360007343D35A00933A46334615F07DFAD5F865
:107370002032013BB34208DD204616F0C1F94246F7
:10738000C0F50061204415F06FFA204616F0B8F9F8
:107390004A46C0F50061204415F066FA01362046E1
:1073A00016F0AEF9D5F820320146B3422044C1F5BB
:1073B0000061D2DC204616F0A3F92C4AC0F500612A
:1073C000204415F051FA204616F09AF90A4B01466E
:1073D0005B68204698472046FBF732FE642007B0E2
:1073E000BDE8F043FBF748BF214FDFF88880DFF8A6
:1073F00088900026D3E700BF6C000020C6830300FE
:10740000D9830300F88303000B8403008F830300F8
:1074100024750300218403006CA803003484030056
:107420004F8403006C8403008A840300A18303005B
:107430009F840300AD830300B5830300B68403007B
:10744000C2830300CA840300DF840300ED840300C9
:10745000088503003A850300548503008E850300E8
:107460008583030099830300BE830300C670030075
:107470007285030076730300326C03007FB50C46FF
:107480006946164600F0E5FA054690BB02981BF0E7
:10749000B7FA012809D002281AD0174B02995B6865
:1074A000164898476FF011050FE0154BA3664FF68D
:1074B000FF736066A4F86C3084F86E302EB194F8D7
:1074C0005D3043F00A0384F85D30284604B070BD97
:1074D0000C4B0122C4E919234FF6FF73A4F86C305A
:1074E00084F86E30002EF0D094F85D3023F00E0357
:1074F000E9E76FF00805E8E76C00002087740300F7
:107500000201FFFF0001FFFF70B5164692F844200C
:1075100004460D4601F00EFE002840F0BE8096F8AD
:1075200045202946204601F016FE002840F0B5808F
:1075300096F848202946204601F040FE002840F0F9
:10754000AC8096F84A202946204601F048FE0028E3
:1075500040F0A38096F860202946204601F01DFEE9
:10756000002840F09A8032782946204601F01CFD20
:10757000002840F0928072782946204601F024FDD0
:10758000002840F08A8032792946204601F03EFDED
:10759000002840F0828096F846202946204601F0D7
:1075A000EBFD002879D1B26A2946204601F04FFD53
:1075B000002872D1326B2946204601F058FD002880
:1075C0006BD1F26A2946204601F061FD002864D1A2
:1075D000B2782946204601F008FD00285DD196F8D2
:1075E00038202946204601F072FD002855D1726BE3
:1075F0002946204601F05BFD00284ED196F83C203C
:107600002946204601F085FD002846D106F14B02AF
:107610002946204601F048FE00283ED196F85D201C
:107620002946204601F0ECFDB8BB96F8BE2029465D
:10763000204601F028FE80BB96F83B2029462046D4
:1076400001F056FD48BB96F8B0202946204601F0CF
:10765000F9FD10BB96F85C202946204601F0E1FDBB
:10766000D8B9F2882946204601F0E1FCA8B9B269F0
:1076700006F108032946204601F0C0FE68B906F16C
:1076800064022946204601F03DFE30B929462046D5
:107690002822BDE8704001F0E6BD70BD2DE9F04143
:1076A000E2B004460E4617460021F02226A815F047
